{
  "contractName": "SwapContract",
  "abi": [
    {
      "inputs": [],
      "stateMutability": "nonpayable",
      "type": "constructor"
    },
    {
      "anonymous": false,
      "inputs": [
        {
          "indexed": false,
          "internalType": "uint256",
          "name": "amountIn",
          "type": "uint256"
        },
        {
          "indexed": false,
          "internalType": "address[]",
          "name": "path",
          "type": "address[]"
        }
      ],
      "name": "SwapETHForTokens",
      "type": "event"
    },
    {
      "anonymous": false,
      "inputs": [
        {
          "indexed": false,
          "internalType": "uint256",
          "name": "amountIn",
          "type": "uint256"
        },
        {
          "indexed": false,
          "internalType": "address[]",
          "name": "path",
          "type": "address[]"
        }
      ],
      "name": "SwapTokensForETH",
      "type": "event"
    },
    {
      "inputs": [],
      "name": "isOwner",
      "outputs": [
        {
          "internalType": "bool",
          "name": "",
          "type": "bool"
        }
      ],
      "stateMutability": "view",
      "type": "function"
    },
    {
      "inputs": [],
      "name": "owner",
      "outputs": [
        {
          "internalType": "address",
          "name": "",
          "type": "address"
        }
      ],
      "stateMutability": "view",
      "type": "function"
    },
    {
      "inputs": [],
      "name": "uniswapV2Pair",
      "outputs": [
        {
          "internalType": "address",
          "name": "",
          "type": "address"
        }
      ],
      "stateMutability": "view",
      "type": "function"
    },
    {
      "inputs": [],
      "name": "uniswapV2Router",
      "outputs": [
        {
          "internalType": "contract IUniswapV2Router02",
          "name": "",
          "type": "address"
        }
      ],
      "stateMutability": "view",
      "type": "function"
    },
    {
      "stateMutability": "payable",
      "type": "receive"
    },
    {
      "inputs": [
        {
          "internalType": "address",
          "name": "fromToken",
          "type": "address"
        },
        {
          "internalType": "uint256",
          "name": "amount",
          "type": "uint256"
        },
        {
          "internalType": "address",
          "name": "desToken",
          "type": "address"
        },
        {
          "internalType": "address",
          "name": "recipient",
          "type": "address"
        }
      ],
      "name": "swapTokenToToken",
      "outputs": [],
      "stateMutability": "nonpayable",
      "type": "function"
    },
    {
      "inputs": [
        {
          "internalType": "uint256",
          "name": "amount",
          "type": "uint256"
        },
        {
          "internalType": "address",
          "name": "desToken",
          "type": "address"
        },
        {
          "internalType": "address",
          "name": "recipient",
          "type": "address"
        }
      ],
      "name": "swapETHToToken",
      "outputs": [],
      "stateMutability": "payable",
      "type": "function"
    },
    {
      "inputs": [
        {
          "internalType": "address",
          "name": "token",
          "type": "address"
        },
        {
          "internalType": "uint256",
          "name": "amount",
          "type": "uint256"
        },
        {
          "internalType": "address",
          "name": "recipient",
          "type": "address"
        }
      ],
      "name": "swapTokenToETH",
      "outputs": [],
      "stateMutability": "payable",
      "type": "function"
    },
    {
      "inputs": [
        {
          "internalType": "address",
          "name": "token",
          "type": "address"
        },
        {
          "internalType": "uint256",
          "name": "amount",
          "type": "uint256"
        }
      ],
      "name": "withdrawToken",
      "outputs": [],
      "stateMutability": "nonpayable",
      "type": "function"
    },
    {
      "inputs": [
        {
          "internalType": "address",
          "name": "token",
          "type": "address"
        }
      ],
      "name": "emergencyWithdrawToken",
      "outputs": [],
      "stateMutability": "nonpayable",
      "type": "function"
    },
    {
      "inputs": [
        {
          "internalType": "uint256",
          "name": "amount",
          "type": "uint256"
        }
      ],
      "name": "withdrawETH",
      "outputs": [],
      "stateMutability": "payable",
      "type": "function"
    },
    {
      "inputs": [],
      "name": "emergencyWithdrawETH",
      "outputs": [],
      "stateMutability": "payable",
      "type": "function"
    },
    {
      "inputs": [],
      "name": "depositETH",
      "outputs": [],
      "stateMutability": "payable",
      "type": "function"
    },
    {
      "inputs": [
        {
          "internalType": "address",
          "name": "token",
          "type": "address"
        }
      ],
      "name": "BalanceOfToken",
      "outputs": [
        {
          "internalType": "uint256",
          "name": "",
          "type": "uint256"
        }
      ],
      "stateMutability": "view",
      "type": "function"
    }
  ],
  "bytecode": "0x60806040523480156200001157600080fd5b50600080546001600160a01b031916331790556040805163c45a015560e01b8152905173d99d1c33f9fc3444f8101754abc46c52416550d191829163c45a015591600480820192602092909190829003018186803b1580156200007357600080fd5b505afa15801562000088573d6000803e3d6000fd5b505050506040513d601f19601f82011682018060405250810190620000ae9190620001dc565b6001600160a01b031663c9c6539630836001600160a01b031663ad5c46486040518163ffffffff1660e01b815260040160206040518083038186803b158015620000f757600080fd5b505afa1580156200010c573d6000803e3d6000fd5b505050506040513d601f19601f82011682018060405250810190620001329190620001dc565b6040518363ffffffff1660e01b8152600401620001519291906200020c565b602060405180830381600087803b1580156200016c57600080fd5b505af115801562000181573d6000803e3d6000fd5b505050506040513d601f19601f82011682018060405250810190620001a79190620001dc565b600280546001600160a01b039283166001600160a01b0319918216179091556001805493909216921691909117905562000226565b600060208284031215620001ee578081fd5b81516001600160a01b038116811462000205578182fd5b9392505050565b6001600160a01b0392831681529116602082015260400190565b610fb180620002366000396000f3fe6080604052600436106100c65760003560e01c8063845360171161007f5780639896a029116100595780639896a029146101d35780639e281a98146101e6578063f14210a614610206578063f6326fb314610219576100cd565b806384536017146101945780638da5cb5b1461019c5780638f32d59b146101b1576100cd565b80631694505e146100d25780631af03203146100fd5780633f7fb3531461011f57806349bd5a5e1461014c5780635ba29ed214610161578063733f718a14610181576100cd565b366100cd57005b600080fd5b3480156100de57600080fd5b506100e7610221565b6040516100f49190610e4a565b60405180910390f35b34801561010957600080fd5b5061011d610118366004610c84565b610230565b005b34801561012b57600080fd5b5061013f61013a366004610c84565b610438565b6040516100f49190610f00565b34801561015857600080fd5b506100e76104bd565b34801561016d57600080fd5b5061011d61017c366004610d2f565b6104cc565b61011d61018f366004610dd1565b6106b9565b61011d610870565b3480156101a857600080fd5b506100e76108b0565b3480156101bd57600080fd5b506101c66108bf565b6040516100f49190610e9b565b61011d6101e1366004610cee565b6108d0565b3480156101f257600080fd5b5061011d610201366004610cc3565b610af0565b61011d610214366004610da1565b610c09565b61011d610c47565b6001546001600160a01b031681565b6102386108bf565b61024157600080fd5b6040516370a0823160e01b81526001600160a01b0382169063095ea7b390309083906370a0823190610277908490600401610e4a565b60206040518083038186803b15801561028f57600080fd5b505afa1580156102a3573d6000803e3d6000fd5b505050506040513d601f19601f820116820180604052508101906102c79190610db9565b6040518363ffffffff1660e01b81526004016102e4929190610e82565b602060405180830381600087803b1580156102fe57600080fd5b505af1158015610312573d6000803e3d6000fd5b505050506040513d601f19601f820116820180604052508101906103369190610d81565b50806001600160a01b03166323b872dd3033846001600160a01b03166370a08231306040518263ffffffff1660e01b81526004016103749190610e4a565b60206040518083038186803b15801561038c57600080fd5b505afa1580156103a0573d6000803e3d6000fd5b505050506040513d601f19601f820116820180604052508101906103c49190610db9565b6040518463ffffffff1660e01b81526004016103e293929190610e5e565b602060405180830381600087803b1580156103fc57600080fd5b505af1158015610410573d6000803e3d6000fd5b505050506040513d601f19601f820116820180604052508101906104349190610d81565b5050565b6040516370a0823160e01b81526000906001600160a01b038316906370a0823190610467903090600401610e4a565b60206040518083038186803b15801561047f57600080fd5b505afa158015610493573d6000803e3d6000fd5b505050506040513d601f19601f820116820180604052508101906104b79190610db9565b92915050565b6002546001600160a01b031681565b600083116104f55760405162461bcd60e51b81526004016104ec90610edb565b60405180910390fd5b604080516002808252606082018352600092602083019080368337019050509050848160008151811061053857634e487b7160e01b600052603260045260246000fd5b60200260200101906001600160a01b031690816001600160a01b031681525050828160018151811061057a57634e487b7160e01b600052603260045260246000fd5b6001600160a01b03928316602091820292909201015260015460405163095ea7b360e01b81528783169263095ea7b3926105bb929116908890600401610e82565b602060405180830381600087803b1580156105d557600080fd5b505af11580156105e9573d6000803e3d6000fd5b505050506040513d601f19601f8201168201806040525081019061060d9190610d81565b50600154604051635c11d79560e01b81526001600160a01b0390911690635c11d79590610647908790600090869088904290600401610f2a565b600060405180830381600087803b15801561066157600080fd5b505af1158015610675573d6000803e3d6000fd5b505050507f32cde87eb454f3a0b875ab23547023107cfad454363ec88ba5695e2c24aa52a784826040516106aa929190610f09565b60405180910390a15050505050565b6040805160028082526060820183526000926020830190803683375050600154604080516315ab88c960e31b815290519394506001600160a01b039091169263ad5c464892506004808301926020929190829003018186803b15801561071e57600080fd5b505afa158015610732573d6000803e3d6000fd5b505050506040513d601f19601f820116820180604052508101906107569190610ca7565b8160008151811061077757634e487b7160e01b600052603260045260246000fd5b60200260200101906001600160a01b031690816001600160a01b03168152505082816001815181106107b957634e487b7160e01b600052603260045260246000fd5b6001600160a01b03928316602091820292909201015260015460405163b6f9de9560e01b815291169063b6f9de959086906107ff90600090869088904290600401610ea6565b6000604051808303818588803b15801561081857600080fd5b505af115801561082c573d6000803e3d6000fd5b50505050507f32cde87eb454f3a0b875ab23547023107cfad454363ec88ba5695e2c24aa52a73482604051610862929190610f09565b60405180910390a150505050565b6108786108bf565b61088157600080fd5b60405130904780156108fc02916000818181858888f193505050501580156108ad573d6000803e3d6000fd5b50565b6000546001600160a01b031690565b6000546001600160a01b0316331490565b604080516002808252606082018352600092602083019080368337019050509050838160008151811061091357634e487b7160e01b600052603260045260246000fd5b6001600160a01b03928316602091820292909201810191909152600154604080516315ab88c960e31b81529051919093169263ad5c4648926004808301939192829003018186803b15801561096757600080fd5b505afa15801561097b573d6000803e3d6000fd5b505050506040513d601f19601f8201168201806040525081019061099f9190610ca7565b816001815181106109c057634e487b7160e01b600052603260045260246000fd5b6001600160a01b03928316602091820292909201015260015460405163095ea7b360e01b81528683169263095ea7b392610a01929116908790600401610e82565b602060405180830381600087803b158015610a1b57600080fd5b505af1158015610a2f573d6000803e3d6000fd5b505050506040513d601f19601f82011682018060405250810190610a539190610d81565b5060015460405163791ac94760e01b81526001600160a01b039091169063791ac94790610a8d908690600090869088904290600401610f2a565b600060405180830381600087803b158015610aa757600080fd5b505af1158015610abb573d6000803e3d6000fd5b505050507f32cde87eb454f3a0b875ab23547023107cfad454363ec88ba5695e2c24aa52a73482604051610862929190610f09565b610af86108bf565b610b0157600080fd5b60405163095ea7b360e01b81526001600160a01b0383169063095ea7b390610b2f9030908590600401610e82565b602060405180830381600087803b158015610b4957600080fd5b505af1158015610b5d573d6000803e3d6000fd5b505050506040513d601f19601f82011682018060405250810190610b819190610d81565b506040516323b872dd60e01b81526001600160a01b038316906323b872dd90610bb290309033908690600401610e5e565b602060405180830381600087803b158015610bcc57600080fd5b505af1158015610be0573d6000803e3d6000fd5b505050506040513d601f19601f82011682018060405250810190610c049190610d81565b505050565b610c116108bf565b610c1a57600080fd5b604051339082156108fc029083906000818181858888f19350505050158015610434573d6000803e3d6000fd5b610c4f6108bf565b610c5857600080fd5b60405130903480156108fc02916000818181858888f193505050501580156108ad573d6000803e3d6000fd5b600060208284031215610c95578081fd5b8135610ca081610f66565b9392505050565b600060208284031215610cb8578081fd5b8151610ca081610f66565b60008060408385031215610cd5578081fd5b8235610ce081610f66565b946020939093013593505050565b600080600060608486031215610d02578081fd5b8335610d0d81610f66565b9250602084013591506040840135610d2481610f66565b809150509250925092565b60008060008060808587031215610d44578081fd5b8435610d4f81610f66565b9350602085013592506040850135610d6681610f66565b91506060850135610d7681610f66565b939692955090935050565b600060208284031215610d92578081fd5b81518015158114610ca0578182fd5b600060208284031215610db2578081fd5b5035919050565b600060208284031215610dca578081fd5b5051919050565b600080600060608486031215610de5578283fd5b833592506020840135610df781610f66565b91506040840135610d2481610f66565b6000815180845260208085019450808401835b83811015610e3f5781516001600160a01b031687529582019590820190600101610e1a565b509495945050505050565b6001600160a01b0391909116815260200190565b6001600160a01b039384168152919092166020820152604081019190915260600190565b6001600160a01b03929092168252602082015260400190565b901515815260200190565b600085825260806020830152610ebf6080830186610e07565b6001600160a01b03949094166040830152506060015292915050565b6020808252600b908201526a06d6f7265207468616e20360ac1b604082015260600190565b90815260200190565b600083825260406020830152610f226040830184610e07565b949350505050565b600086825285602083015260a06040830152610f4960a0830186610e07565b6001600160a01b0394909416606083015250608001529392505050565b6001600160a01b03811681146108ad57600080fdfea2646970667358221220bd29e7e139d96c0b48b207faf0be2dcaa9619bc6533c2b6d674d8b782866d0d564736f6c63430008000033",
  "immutableReferences": {},
  "source": "// SPDX-License-Identifier: MIT\r\npragma solidity ^0.8.0;\r\n\r\nabstract contract Context {\r\n    function _msgSender() internal view virtual returns (address payable) {\r\n        return payable(msg.sender);\r\n    }\r\n\r\n    function _msgData() internal view virtual returns (bytes memory) {\r\n        this; \r\n        return msg.data;\r\n    }\r\n}\r\n\r\nlibrary SafeMath {\r\n\r\n    function add(uint256 a, uint256 b) internal pure returns (uint256) {\r\n        uint256 c = a + b;\r\n        require(c >= a, \"SafeMath: addition overflow\");\r\n\r\n        return c;\r\n    }\r\n\r\n    function sub(uint256 a, uint256 b) internal pure returns (uint256) {\r\n        return sub(a, b, \"SafeMath: subtraction overflow\");\r\n    }\r\n\r\n    function sub(uint256 a, uint256 b, string memory errorMessage) internal pure returns (uint256) {\r\n        require(b <= a, errorMessage);\r\n        uint256 c = a - b;\r\n\r\n        return c;\r\n    }\r\n\r\n    function mul(uint256 a, uint256 b) internal pure returns (uint256) {\r\n        if (a == 0) {\r\n            return 0;\r\n        }\r\n\r\n        uint256 c = a * b;\r\n        require(c / a == b, \"SafeMath: multiplication overflow\");\r\n\r\n        return c;\r\n    }\r\n\r\n\r\n    function div(uint256 a, uint256 b) internal pure returns (uint256) {\r\n        return div(a, b, \"SafeMath: division by zero\");\r\n    }\r\n\r\n    function div(uint256 a, uint256 b, string memory errorMessage) internal pure returns (uint256) {\r\n        require(b > 0, errorMessage);\r\n        uint256 c = a / b;\r\n        // assert(a == b * c + a % b); // There is no case in which this doesn't hold\r\n\r\n        return c;\r\n    }\r\n\r\n    function mod(uint256 a, uint256 b) internal pure returns (uint256) {\r\n        return mod(a, b, \"SafeMath: modulo by zero\");\r\n    }\r\n\r\n    function mod(uint256 a, uint256 b, string memory errorMessage) internal pure returns (uint256) {\r\n        require(b != 0, errorMessage);\r\n        return a % b;\r\n    }\r\n}\r\n\r\n\r\ninterface IERC20 {\r\n    /**\r\n     * @dev Returns the amount of tokens in existence.\r\n     */\r\n    function totalSupply() external view returns (uint256);\r\n\r\n    /**\r\n     * @dev Returns the amount of tokens owned by `account`.\r\n     */\r\n    function balanceOf(address account) external view returns (uint256);\r\n\r\n    /**\r\n     * @dev Moves `amount` tokens from the caller's account to `recipient`.\r\n     *\r\n     * Returns a boolean value indicating whether the operation succeeded.\r\n     *\r\n     * Emits a {Transfer} event.\r\n     */\r\n    function transfer(address recipient, uint256 amount) external returns (bool);\r\n\r\n    /**\r\n     * @dev Returns the remaining number of tokens that `spender` will be\r\n     * allowed to spend on behalf of `owner` through {transferFrom}. This is\r\n     * zero by default.\r\n     *\r\n     * This value changes when {approve} or {transferFrom} are called.\r\n     */\r\n    function allowance(address owner, address spender) external view returns (uint256);\r\n\r\n    /**\r\n     * @dev Sets `amount` as the allowance of `spender` over the caller's tokens.\r\n     *\r\n     * Returns a boolean value indicating whether the operation succeeded.\r\n     *\r\n     * IMPORTANT: Beware that changing an allowance with this method brings the risk\r\n     * that someone may use both the old and the new allowance by unfortunate\r\n     * transaction ordering. One possible solution to mitigate this race\r\n     * condition is to first reduce the spender's allowance to 0 and set the\r\n     * desired value afterwards:\r\n     * https://github.com/ethereum/EIPs/issues/20#issuecomment-263524729\r\n     *\r\n     * Emits an {Approval} event.\r\n     */\r\n    function approve(address spender, uint256 amount) external returns (bool);\r\n\r\n    /**\r\n     * @dev Moves `amount` tokens from `sender` to `recipient` using the\r\n     * allowance mechanism. `amount` is then deducted from the caller's\r\n     * allowance.\r\n     *\r\n     * Returns a boolean value indicating whether the operation succeeded.\r\n     *\r\n     * Emits a {Transfer} event.\r\n     */\r\n    function transferFrom(\r\n        address sender,\r\n        address recipient,\r\n        uint256 amount\r\n    ) external returns (bool);\r\n\r\n    /**\r\n     * @dev Emitted when `value` tokens are moved from one account (`from`) to\r\n     * another (`to`).\r\n     *\r\n     * Note that `value` may be zero.\r\n     */\r\n    event Transfer(address indexed from, address indexed to, uint256 value);\r\n\r\n    /**\r\n     * @dev Emitted when the allowance of a `spender` for an `owner` is set by\r\n     * a call to {approve}. `value` is the new allowance.\r\n     */\r\n    event Approval(address indexed owner, address indexed spender, uint256 value);\r\n}\r\n\r\ncontract Ownable {\r\n    address _owner;\r\n\r\n    constructor() {\r\n        _owner = msg.sender;\r\n    }\r\n\r\n    function owner() public view returns(address) {\r\n        return _owner;\r\n    }\r\n\r\n    modifier onlyOwner() {\r\n        require(isOwner());\r\n        _;\r\n    }\r\n\r\n    function isOwner() public view returns(bool) {\r\n        return msg.sender == _owner;\r\n    }\r\n}\r\n\r\n// pragma solidity >=0.5.0;\r\n\r\ninterface IUniswapV2Factory {\r\n    event PairCreated(address indexed token0, address indexed token1, address pair, uint);\r\n\r\n    function feeTo() external view returns (address);\r\n    function feeToSetter() external view returns (address);\r\n\r\n    function getPair(address tokenA, address tokenB) external view returns (address pair);\r\n    function allPairs(uint) external view returns (address pair);\r\n    function allPairsLength() external view returns (uint);\r\n\r\n    function createPair(address tokenA, address tokenB) external returns (address pair);\r\n\r\n    function setFeeTo(address) external;\r\n    function setFeeToSetter(address) external;\r\n}\r\n\r\n\r\n// pragma solidity >=0.5.0;\r\n\r\ninterface IUniswapV2Pair {\r\n    event Approval(address indexed owner, address indexed spender, uint value);\r\n    event Transfer(address indexed from, address indexed to, uint value);\r\n\r\n    function name() external pure returns (string memory);\r\n    function symbol() external pure returns (string memory);\r\n    function decimals() external pure returns (uint8);\r\n    function totalSupply() external view returns (uint);\r\n    function balanceOf(address owner) external view returns (uint);\r\n    function allowance(address owner, address spender) external view returns (uint);\r\n\r\n    function approve(address spender, uint value) external returns (bool);\r\n    function transfer(address to, uint value) external returns (bool);\r\n    function transferFrom(address from, address to, uint value) external returns (bool);\r\n\r\n    function DOMAIN_SEPARATOR() external view returns (bytes32);\r\n    function PERMIT_TYPEHASH() external pure returns (bytes32);\r\n    function nonces(address owner) external view returns (uint);\r\n\r\n    function permit(address owner, address spender, uint value, uint deadline, uint8 v, bytes32 r, bytes32 s) external;\r\n    \r\n    event Burn(address indexed sender, uint amount0, uint amount1, address indexed to);\r\n    event Swap(\r\n        address indexed sender,\r\n        uint amount0In,\r\n        uint amount1In,\r\n        uint amount0Out,\r\n        uint amount1Out,\r\n        address indexed to\r\n    );\r\n    event Sync(uint112 reserve0, uint112 reserve1);\r\n\r\n    function MINIMUM_LIQUIDITY() external pure returns (uint);\r\n    function factory() external view returns (address);\r\n    function token0() external view returns (address);\r\n    function token1() external view returns (address);\r\n    function getReserves() external view returns (uint112 reserve0, uint112 reserve1, uint32 blockTimestampLast);\r\n    function price0CumulativeLast() external view returns (uint);\r\n    function price1CumulativeLast() external view returns (uint);\r\n    function kLast() external view returns (uint);\r\n\r\n    function burn(address to) external returns (uint amount0, uint amount1);\r\n    function swap(uint amount0Out, uint amount1Out, address to, bytes calldata data) external;\r\n    function skim(address to) external;\r\n    function sync() external;\r\n\r\n    function initialize(address, address) external;\r\n}\r\n\r\n// pragma solidity >=0.6.2;\r\n\r\ninterface IUniswapV2Router01 {\r\n    function factory() external pure returns (address);\r\n    function WETH() external pure returns (address);\r\n\r\n    function addLiquidity(\r\n        address tokenA,\r\n        address tokenB,\r\n        uint amountADesired,\r\n        uint amountBDesired,\r\n        uint amountAMin,\r\n        uint amountBMin,\r\n        address to,\r\n        uint deadline\r\n    ) external returns (uint amountA, uint amountB, uint liquidity);\r\n    function addLiquidityETH(\r\n        address token,\r\n        uint amountTokenDesired,\r\n        uint amountTokenMin,\r\n        uint amountETHMin,\r\n        address to,\r\n        uint deadline\r\n    ) external payable returns (uint amountToken, uint amountETH, uint liquidity);\r\n    function removeLiquidity(\r\n        address tokenA,\r\n        address tokenB,\r\n        uint liquidity,\r\n        uint amountAMin,\r\n        uint amountBMin,\r\n        address to,\r\n        uint deadline\r\n    ) external returns (uint amountA, uint amountB);\r\n    function removeLiquidityETH(\r\n        address token,\r\n        uint liquidity,\r\n        uint amountTokenMin,\r\n        uint amountETHMin,\r\n        address to,\r\n        uint deadline\r\n    ) external returns (uint amountToken, uint amountETH);\r\n    function removeLiquidityWithPermit(\r\n        address tokenA,\r\n        address tokenB,\r\n        uint liquidity,\r\n        uint amountAMin,\r\n        uint amountBMin,\r\n        address to,\r\n        uint deadline,\r\n        bool approveMax, uint8 v, bytes32 r, bytes32 s\r\n    ) external returns (uint amountA, uint amountB);\r\n    function removeLiquidityETHWithPermit(\r\n        address token,\r\n        uint liquidity,\r\n        uint amountTokenMin,\r\n        uint amountETHMin,\r\n        address to,\r\n        uint deadline,\r\n        bool approveMax, uint8 v, bytes32 r, bytes32 s\r\n    ) external returns (uint amountToken, uint amountETH);\r\n    function swapExactTokensForTokens(\r\n        uint amountIn,\r\n        uint amountOutMin,\r\n        address[] calldata path,\r\n        address to,\r\n        uint deadline\r\n    ) external returns (uint[] memory amounts);\r\n    function swapTokensForExactTokens(\r\n        uint amountOut,\r\n        uint amountInMax,\r\n        address[] calldata path,\r\n        address to,\r\n        uint deadline\r\n    ) external returns (uint[] memory amounts);\r\n    function swapExactETHForTokens(uint amountOutMin, address[] calldata path, address to, uint deadline)\r\n        external\r\n        payable\r\n        returns (uint[] memory amounts);\r\n    function swapTokensForExactETH(uint amountOut, uint amountInMax, address[] calldata path, address to, uint deadline)\r\n        external\r\n        returns (uint[] memory amounts);\r\n    function swapExactTokensForETH(uint amountIn, uint amountOutMin, address[] calldata path, address to, uint deadline)\r\n        external\r\n        returns (uint[] memory amounts);\r\n    function swapETHForExactTokens(uint amountOut, address[] calldata path, address to, uint deadline)\r\n        external\r\n        payable\r\n        returns (uint[] memory amounts);\r\n\r\n    function quote(uint amountA, uint reserveA, uint reserveB) external pure returns (uint amountB);\r\n    function getAmountOut(uint amountIn, uint reserveIn, uint reserveOut) external pure returns (uint amountOut);\r\n    function getAmountIn(uint amountOut, uint reserveIn, uint reserveOut) external pure returns (uint amountIn);\r\n    function getAmountsOut(uint amountIn, address[] calldata path) external view returns (uint[] memory amounts);\r\n    function getAmountsIn(uint amountOut, address[] calldata path) external view returns (uint[] memory amounts);\r\n}\r\n\r\n// pragma solidity >=0.6.2;\r\n\r\ninterface IUniswapV2Router02 is IUniswapV2Router01 {\r\n    function removeLiquidityETHSupportingFeeOnTransferTokens(\r\n        address token,\r\n        uint liquidity,\r\n        uint amountTokenMin,\r\n        uint amountETHMin,\r\n        address to,\r\n        uint deadline\r\n    ) external returns (uint amountETH);\r\n    function removeLiquidityETHWithPermitSupportingFeeOnTransferTokens(\r\n        address token,\r\n        uint liquidity,\r\n        uint amountTokenMin,\r\n        uint amountETHMin,\r\n        address to,\r\n        uint deadline,\r\n        bool approveMax, uint8 v, bytes32 r, bytes32 s\r\n    ) external returns (uint amountETH);\r\n\r\n    function swapExactTokensForTokensSupportingFeeOnTransferTokens(\r\n        uint amountIn,\r\n        uint amountOutMin,\r\n        address[] calldata path,\r\n        address to,\r\n        uint deadline\r\n    ) external;\r\n    function swapExactETHForTokensSupportingFeeOnTransferTokens(\r\n        uint amountOutMin,\r\n        address[] calldata path,\r\n        address to,\r\n        uint deadline\r\n    ) external payable;\r\n    function swapExactTokensForETHSupportingFeeOnTransferTokens(\r\n        uint amountIn,\r\n        uint amountOutMin,\r\n        address[] calldata path,\r\n        address to,\r\n        uint deadline\r\n    ) external;\r\n}\r\n\r\ncontract SwapContract is  Ownable {\r\n    using SafeMath for uint256;\r\n\r\n   \r\n    IUniswapV2Router02 public uniswapV2Router;\r\n    address public uniswapV2Pair;\r\n\r\n    constructor () {\r\n        // Pancake Router Testnet v1\r\n        IUniswapV2Router02 _uniswapV2Router = IUniswapV2Router02(0xD99D1c33F9fC3444f8101754aBC46c52416550D1); //bsc\r\n        // IUniswapV2Router02 _uniswapV2Router = IUniswapV2Router02(0x7a250d5630B4cF539739dF2C5dAcb4c659F2488D); //ropsten\r\n        \r\n        // Pancake Router Mainnet v1\r\n        // IUniswapV2Router02 _uniswapV2Router = IUniswapV2Router02(0x10ED43C718714eb63d5aA57B78B54704E256024E);\r\n\r\n        uniswapV2Pair = IUniswapV2Factory(_uniswapV2Router.factory())\r\n            .createPair(address(this), _uniswapV2Router.WETH());\r\n\r\n        uniswapV2Router = _uniswapV2Router;\r\n    }\r\n\r\n    event SwapETHForTokens(\r\n        uint256 amountIn,\r\n        address[] path\r\n    );\r\n\r\n    event SwapTokensForETH(\r\n        uint256 amountIn,\r\n        address[] path\r\n    );\r\n\r\n    function swapTokenToToken(address fromToken, uint256 amount, address desToken, address recipient) public {\r\n        \r\n        require(amount > 0, \"more than 0\");\r\n\r\n        // Generate the uniswap pair path of token -> WETH\r\n        address[] memory path = new address[](2);\r\n        path[0] = fromToken;\r\n        path[1] = desToken;\r\n\r\n        IERC20(fromToken).approve(address(uniswapV2Router), amount);\r\n        //require(uniswapV2Router.getAmountsOut(1, path)[1] > 0, \"No price\");\r\n\r\n        // Make the swap\r\n        uniswapV2Router.swapExactTokensForTokensSupportingFeeOnTransferTokens(\r\n            amount,\r\n            0, // Accept any amount of ETH\r\n            path,\r\n            recipient, // The contract\r\n            block.timestamp\r\n        );\r\n        \r\n        emit SwapTokensForETH(amount, path);\r\n    }\r\n\r\n    function swapETHToToken(uint256 amount, address desToken, address recipient) external payable {\r\n        \r\n        // Generate the uniswap pair path of token -> WETH\r\n        address[] memory path = new address[](2);\r\n        path[0] = uniswapV2Router.WETH();\r\n        path[1] = desToken;\r\n        \r\n        // Make the swap\r\n        uniswapV2Router.swapExactETHForTokensSupportingFeeOnTransferTokens{value: amount}(\r\n            0, // Accept any amount of ETH\r\n            path,\r\n            recipient, // The contract\r\n            block.timestamp\r\n        );\r\n        \r\n        emit SwapTokensForETH(msg.value, path);\r\n    }\r\n\r\n    function swapTokenToETH(address token, uint256 amount, address recipient) external payable {\r\n        \r\n        // Generate the uniswap pair path of token -> WETH\r\n        address[] memory path = new address[](2);\r\n        path[0] = token;\r\n        path[1] = uniswapV2Router.WETH();\r\n        IERC20(token).approve(address(uniswapV2Router), amount);\r\n        \r\n        // Make the swap\r\n        uniswapV2Router.swapExactTokensForETHSupportingFeeOnTransferTokens(\r\n            amount,\r\n            0, // Accept any amount of ETH\r\n            path,\r\n            recipient, // The contract\r\n            block.timestamp\r\n        );\r\n        \r\n        emit SwapTokensForETH(msg.value, path);\r\n    }\r\n\r\n    function withdrawToken(address token, uint256 amount) external onlyOwner {\r\n        IERC20(token).approve(address(this), amount);\r\n        IERC20(token).transferFrom(address(this), msg.sender, amount);\r\n    }\r\n\r\n    function emergencyWithdrawToken(address token) external onlyOwner {\r\n        IERC20(token).approve(address(this), IERC20(token).balanceOf(address(this)));\r\n        IERC20(token).transferFrom(address(this), msg.sender, IERC20(token).balanceOf(address(this)));\r\n    }\r\n\r\n    function withdrawETH(uint256 amount) external payable onlyOwner {\r\n        \r\n        payable(msg.sender).transfer(amount);\r\n    }\r\n\r\n    function emergencyWithdrawETH() external payable onlyOwner {\r\n        \r\n        payable(address(this)).transfer(address(this).balance);\r\n    }\r\n\r\n    function depositETH() external payable onlyOwner {\r\n        \r\n        payable(address(this)).transfer(msg.value);\r\n    }\r\n\r\n    function BalanceOfToken(address token) external view returns (uint256) {\r\n        \r\n        return IERC20(token).balanceOf(address(this));\r\n    }    \r\n    receive() external payable {}\r\n\r\n}",
  "sourcePath": "D:\\Work\\Blockchain\\Token-Token-Swap\\backend\\src\\blockchain\\contracts\\contract.sol",
  "compiler": {
    "name": "solc",
    "version": "0.8.0+commit.c7dfd78e.Emscripten.clang"
  },
  "schemaVersion": "3.4.3",
  "updatedAt": "2022-08-09T21:18:44.486Z",
  "devdoc": {
    "kind": "dev",
    "methods": {},
    "version": 1
  },
  "userdoc": {
    "kind": "user",
    "methods": {},
    "version": 1
  }
}